:02000000922A42
:08000800FF00030E8312031335
:10001000B4000A0EB500040EB6008A110A12BA2AFC
:10002000D708031D14280800F930FF3E031D1528CA
:100030000000D70B14280800DF30831603130605D1
:100040008600DF3083120605D70020305704860073
:10005000C830D7001020DF30831606058600DF3059
:1000600083120605860008001B30831692000430B8
:10007000831292004E03031D08000C309700831674
:10008000061008004E030319970108008316031396
:100090009F0101309B0005088312D20001308316B6
:1000A00005048500C13083129F00D301283053021C
:1000B00003185C28D30A562804301F049F001F1918
:1000C0005F285208831685009B0183129F01080058
:1000D000D401D601D501D51908000310D60DD20DD3
:1000E000D40D53085402031C7728D4005614D50AA3
:1000F0006B28EF308316031305058500EF3083125C
:100100000505D200103052048500F730831605052E
:100110008500F73083120505D200083052048500AF
:10012000FB30831605058500FB308312050585002D
:100130000A30D700102002308316060486000230F1
:1001400083120605D200C801023052020319C80A00
:10015000C808031DAD280730C70004308316060405
:100160008600043083120605D200CA010430520210
:100170000319CA0ACA08031D08000830C70008008E
:10018000EF308316031305058500EF308312050554
:10019000D200103052048500F73083160505850023
:1001A000F730831205058500FB30831605058500B1
:1001B000FB3083120505D2000430520485000A305A
:1001C000D700102002308316060486000230831206
:1001D0000605D200C801023052020319C80AC80835
:1001E000031DF4280430C900043083160604860079
:1001F000043083120605D200CA01043052020319EA
:10020000CA0ACA08031D06290530C9001030831622
:1002100006048600103083120605D200C201103099
:1002200052020319C20AC208031D08000630C900A1
:100230000800EF308316031305058500EF308312A5
:1002400005058500F730831605058500F730831214
:100250000505D200083052048500FB3083160505E1
:100260008500FB3083120505D2000430520485005E
:100270000A30D700102002308316060486000230B0
:1002800083120605D200C801023052020319C80ABF
:10029000C808031D4D290130C90004308316060427
:1002A0008600043083120605D200CA0104305202CF
:1002B0000319CA0ACA08031D5F290230C900103099
:1002C000831606048600103083120605D200C20190
:1002D000103052020319C20AC208031D080003307D
:1002E000C9000800F7308316031306058600F730AF
:1002F00083120605CE0008304E0486000130CE0081
:10030000342001308312D70010200130CE0042206B
:10031000F730831606058600F73083120605CE00F7
:1003200008304E0486000230D70010200800F73055
:100330008316031306058600F73083120605CE00E8
:1003400008304E0486000130CE0034200230831283
:10035000D70010200130CE004220F730831606056A
:100360008600F73083120605CE0008304E04860062
:100370000130D7001020080046201E08D2000800D7
:100380007920C708031D0800FD3083160505850088
:10039000FD30831205058500BC215208C7004708BF
:1003A000D2002830D30068205608C700FD308316DD
:1003B00005058500FD3083120505D2000230520488
:1003C0008500080083120313C9011921C020080009
:1003D000831203134908C400CE01C40DCE0DC40D11
:1003E000CE0DC40DCE0DC40DCE0DF030C4054708A2
:1003F000C4078030C5004508003C031808004408C5
:10040000D2004508D30068205608003C03180D2A86
:10041000722145084402C4000E2A9721C508031022
:10042000C50CFB29E221DF30831606058600DF308C
:10043000831206058600C701C5014908C300323092
:10044000D7001020450AC500E221CF014308490228
:100450000319CF0ACE01CE0AC908031D4E104E085B
:100460004F04031D362A4908C300C501C021D1012C
:100470001E304502031CD10AD001D00AC708031D53
:10048000501050085105031D1F2AC70803194C2A94
:100490004308C900E8211C20CD01CD0AC708031D6F
:1004A0004D10CD0803191B2ADF3083160605860080
:1004B000DF3083120605CD0020304D048600080091
:1004C0004B03031D08004C08950008006E3083168E
:1004D00003138F0001308312CB000D30CC0060225B
:1004E0000800FF30831603130504850083120508F6
:1004F000C600FF3083160604860083120608C60075
:10050000630000000800831603139B0107309C0062
:10051000C030810066221C20831601138B170B1636
:100520007122902AD53083120313A000C430A10099
:10053000BB30A200DC30A300A401A501A601A701E5
:10054000A801A901AA01AB01AC01AD01AE01AF0147
:10055000BC01BD01B701B801BE01BF01C001C101AD
:10056000B001B101B201B301BA01BB01B9018A11F5
:100570000A12832A8B1CC02A0B1EC02A12228B103F
:1005800083120313360E8400350E8A00340E830066
:06059000FF0E7F0E0900C2
:02400E00382F49
:02401000FC3F73
:00000001FF
